:100000000C9434000C943E000C943E000C943E0082
:100010000C943E000C943E000C943E000C943E0068
:100020000C943E000C943E000C943E000C943E0058
:100030000C943E000C943E000C943E000C943E0048
:100040000C943E000C943E000C943E000C943E0038
:100050000C943E000C943E000C943E000C943E0028
:100060000C943E000C943E0011241FBECFEFD8E04C
:10007000DEBFCDBF0E9452000C9455000C940000CE
:1000800000C010E014BD1FEF17BD10E01ABD1FE047
:1000900015BD10EF18BD10EF1BBD10EF1BBD1FE00D
:0E00A0001BBDFBCF0E944000FDCFF894FFCFA8
:00000001FF
